:020000040800F2
:1000000080070020D10000085919000817180008BF
:1000100000000000000000000000000000000000E0
:100020000000000000000000000000005D19000852
:1000300000000000000000005B1900085F190008C4
:10004000E3000008E3000008E3000008E300000804
:10005000E3000008E3000008E3000008E3000008F4
:10006000E300000825030008E3000008E30000089F
:10007000E3000008E3000008E3000008E3000008D4
:10008000E3000008E300000800000000E3000008AF
:10009000E3000008E3000008E3000008E3000008B4
:1000A000E3000008E3000008E3000008E3000008A4
:1000B000E300000800000000E30000080348854654
:1000C00000F094F80048004715220008800700203F
:1000D0000448804704480047FEE7FEE7FEE7FEE7E6
:1000E000FEE7FEE7BD190008BD00000830B50B466D
:1000F000014600202022012409E00D46D5409D4202
:1001000005D31D469540491B254695404019154687
:10011000521E002DF1DC30BDF0B51FB406460020A4
:1001200082B005464024019100901BE001992246CF
:100130000F46304600F020F8049A059B801A99413A
:1001400010D310461946224600F040F8361A8F4167
:100150000197224601200021009F00F037F838184F
:100160004D4100902046641E0028DFDC019B009872
:100170002946324607B0F0BD10B5202A04DB0846F8
:10018000203AD040002110BD0B46D340D04020245F
:10019000A21A91400843194610BDD2B201E0027084
:1001A000401C491EFBD270470022F6E710B51346EB
:1001B0000A4604461946FFF7F0FF204610BD421CD0
:1001C0000178401C0029FBD1801A704710B5202A05
:1001D00004DB0146203A9140002010BD91402023CD
:1001E0009C1A0346E3401943904010BD064C01257C
:1001F000064E05E0E36807CC2B430C3C98471034CF
:10020000B442F7D3FFF75EFFBC230008DC230008ED
:1002100010B50146406A826B50231A420AD1816BA5
:1002200001225202114381630168CA681205920FCC
:1002300005D020E0006B026B0846904710BD827E1F
:10024000002A18D10A68120715D58A6853070122B7
:10025000002B09DB4B680C24A3434B60816B13021A
:1002600099431143816306E0816B20231943816325
:10027000C16B1143C16300F073F910BD10B5406A42
:10028000816B402211438163C16B04221143C1631E
:1002900000F072F910BD10B5406A00F067F910BDAA
:1002A000F8B5044600200090206881688907890F0E
:1002B000012905D10168C9072CD1C168090429D4D5
:1002C0008168154A102611400125002915D1816841
:1002D00029438160124811490068FFF707FF00E0D9
:1002E000401E00900028FBD100F07AFC07460CE08D
:1002F00000F076FCC01B022807D9A06B3043A06336
:10030000E06B2843E0630120F8BD20680068C0432B
:10031000C007EDD10020F8BD1700008040420F005B
:100320001000002010B5024800F007FB10BD0000CF
:100330003803002010B50446006805494018142110
:10034000FFF7D4FE800020640248E06310BD000087
:10035000F8FFFDBF0000024030B5056C0124AC4041
:10036000C56B6C60046863604368102B036803D03E
:1003700099600068C26030BD9A600068C16030BD9D
:100380007047F8B5054604462035287D002601282B
:1003900008D001202875206881688907890F012904
:1003A00008D101E00220F8BD0168C90738D1C16851
:1003B000090435D4A16BFF2201329143022211437B
:1003C000A163C1688907890F0091C1688908890004
:1003D000C1602068816892071143816000F000FCD1
:1003E00007460EE000F0FCFBC01B022809D9A06BF9
:1003F0000221884310210843A063002028750120B2
:10040000F8BD206880680028ECDB2068C168009A8D
:100410001143C160A06B80088000401CA06304E011
:10042000A06B20210843A0630126002028753046D8
:10043000F8BD0000F8B50025044620340095227D63
:10044000012A3BD00122227503689E68760776D484
:100450003F4F4E68BE4254D09E6A0F78BA40164352
:100460009E620123C26A1B079A421FD0012A1DD037
:10047000022A1BD0032A19D0042A17D0052A15D026
:10048000062A13D0072A11D002688B6856697607AE
:10049000760FB3420AD05369DB08DB005361006872
:1004A00042690B7A5B075B0F1A43426108681028A8
:1004B00006D0112804D0122802D045E00220F8BD51
:1004C000244A9368102809D011280AD00120000678
:1004D000034393600868102806D035E00120C0056A
:1004E000F6E701208005F3E71C481B490068FFF789
:1004F000FDFD0A21484300E0401E00900028FBD18A
:1005000022E0986A0E78B2409043986208681028FA
:1005100003D0112801D0122816D10E498A6810285C
:1005200007D0112808D00120000682438A600BE022
:1005300005E00120C005F8E701208005F5E7816BA3
:100540002022114381630125002020752846F8BD33
:10055000011000000027014040420F001000002061
:100560000149022008707047000000200149012065
:10057000087070470000002070470000F8B50026A2
:100580000446002805D0A06B25462035002802D05F
:1005900007E00120F8BD0020E0632875204600F048
:1005A000A9F8A06B1022C006002870DB20688168C3
:1005B00049076CD4A16B1301994302231943A1632A
:1005C00081688907890F012905D10168C9070FD101
:1005D000C16809040CD4C16818239943A36819435E
:1005E000C160206801696368890089081943016155
:1005F0002068C1683D4B1940C160207E617E800348
:10060000C9030843A17E4B031843A36A012B02D000
:1006100001231B0300E000231843E3681843236908
:10062000022B09D0002318432B79E57E5B00184389
:100630000123012D02D00AE00423F4E7002927D08A
:10064000A16B20252943A163E16B1943E163E169B3
:100650000D46FF3DC23D02D0256A2943084321686B
:10066000CD680543CD600125E16A2D07A94213D06D
:10067000012911D002290FD003290DD004290BD054
:10068000052909D0062907D0072905D010E028E060
:10069000012109040843DAE721684D69ED08ED00FE
:1006A0004D6121684D69A78D7F077F0F3D434D61E7
:1006B0002168C9680E4D2940814207D10020E063BE
:1006C000A06B80088000401CA06308E0A06B0221A2
:1006D00088431043A063E06B1843E0630126304673
:1006E000F8BDA06B1043A063F8E700001902FEFFFD
:1006F000E7FF3F8370B586B0054614216846FFF7D3
:1007000053FD1C492868884231D11B498A6940152C
:1007100002438A618A69024005924A6900020243E3
:100720004A6149690026014005910120009003209B
:100730000190092069460296C00600F0ADF90F4805
:100740000F4C41C48020266060604000A0608000A3
:10075000E06020202061000260610948083C00F050
:100760003BF9002801D0FFF70BFE2C63656206B051
:1007700070BD00000024014000100240080002404B
:1007800038030020F7B5044600680025806840075C
:100790003DD426462036307D01280AD00127377502
:1007A000607E012807D02046FFF77AFD050002D0C1
:1007B0002EE00220FEBDA06B16490840FF2101314A
:1007C0000843A0630020E0633075216B1248886203
:1007D000216B1248C862216B1148086321681C20F4
:1007E0000860206841681022114341602068C16898
:1007F0003943C1602168206B4031029B019A00F0AF
:1008000015F92068816804221143816000E0022507
:100810002846FEBDFEF1FFFF110200089702000806
:100820007D02000870B54379012B13D00125457175
:1008300002230371066834683E2393409C430B688F
:1008400049680B4393402343336005710021417194
:10085000084670BD022070BD70B5040004D0207938
:100860000025002802D005E0012070BD65712046FA
:1008700000F008F80220207125610120207100207D
:1008800070BD000010B586B0044614216846FFF71D
:100890008BFC10492068884219D10F48C269410475
:1008A0000A43C261C2690A400592426909130A43B8
:1008B000426140690840059010200090032001909B
:1008C0000020029009206946C00600F0E5F806B055
:1008D00010BD0000007400400010024018B504680C
:1008E000009400688018002904D014300090036040
:1008F000002018BD0830F9E730B54279012A0CD044
:10090000012242710223037103681D6814468C4062
:1009100025431D60002902D00AE0022030BD016895
:100920000B689B061B0F0F2B02D14B6813434B60C8
:10093000027100214171084630BDF0B4C16B0D68F1
:1009400001680C680422066C1346B3402B420DD09C
:1009500063070BD50B689B0602D40B6893430B60AF
:10096000016C8A40C16B4A60C16A19E00227B74036
:1009700002462F4001232032002F15D0A70713D5A0
:100980000C68A40604D40C680A25AC430C605370B0
:10099000036C02219940C36B596000211170816A78
:1009A000002916D0F0BC08470827B7402F4210D0C6
:1009B00024070ED50C680E25AC430C60046C194658
:1009C000A140C46B61608363537000211170016B9F
:1009D000E6E7F0BC7047000070B5040021D00221AA
:1009E0002046203005464170226811680E48A368F1
:1009F0000140606826691843E3683343184363691C
:100A00001843A3691843E36918430843106020465C
:100A1000FFF790FC0021A16301206870297008464F
:100A200070BD012070BD00000FC0FFFFF8B5044687
:100A30008C46203001780025012909D00126067056
:100A400041780027012905D0077002252846F8BD06
:100A50000220F8BD02214170A7632068016849089F
:100A60004900016061462046FFF776FCE06A0028F5
:100A70002068016802D00E22114306E00A221143C9
:100A800001602068016804229143016020680168C8
:100A900031430160DAE70000F8B500238DE001245E
:100AA0009C40A44622407DD04C68022C01D0122CE0
:100AB0000CD1DC08A40027183C6A5D07ED0E0F2658
:100AC000AE40B4430E69AE4026433E6205685E0008
:100AD0000324B4400F79A543BF07BF0FB7402F438E
:100AE00007604D68012D05D0022D03D0112D01D0D6
:100AF000122D0ED18568CF68A543B7402F4387607C
:100B000047686546AF430D79ED06ED0F9D403D43C7
:100B10004560C568A5438C68B4402C43C4604C68EC
:100B2000E40049D5284CA56901263543A561A4698F
:100B30009D0834400094254CAD002F19BC689D07DA
:100B40002E0F0F25B540AC430925ED06A84201D173
:100B500000250FE01E4DA84201D101250AE01D4DE0
:100B6000A84201D1022505E01B4DA84201D1032571
:100B700000E00525B5402543BD60184C25684E684A
:100B80009543F60300D51543256065684E68954387
:100B9000B60300D515436560A5684E689543F60217
:100BA00002D500E008E01543A560E5684E6895436E
:100BB000B60200D51543E5605B1C0A681446DC40AC
:100BC00000D06CE7F8BD00000010024000000140BA
:100BD0000004004800080048000C004800040140E0
:100BE00001488068704700000400002002488168C6
:100BF00002788918816070470400002010B506480B
:100C00000168102211430160002000F007F800F095
:100C100027F8002010BD00000020024070B50446F7
:100C20000D4D7D202978C000FFF760FA01460B4882
:100C30000068FFF75BFA00F04BFB002809D1042C99
:100C400007D200222146401E00F02AF800206C60E6
:100C500070BD012070BD00000400002010000020C5
:100C600008B50848816901221143816181691140F9
:100C70000091C26901040A43C261C0690840009042
:100C800008BD000000100240002805DBC106C90EA7
:100C900001208840014908607047000000E100E041
:100CA00010B501F0D1F910BDF8B505460068394C12
:100CB000C00352D5E0690026C00007D4E1692004D2
:100CC0000143E161E1690140012600913248016878
:100CD000C90510D40168821511430160FFF780FF38
:100CE000074604E0FFF77CFFC01B642824D82A488D
:100CF0000068C005F6D5206A03273F02384020D09F
:100D00006968394081421CD0206A226AB8430121B7
:100D100009040A432262226A8A4322622062C007CF
:100D20000FD0FFF75DFF009008E0FFF759FF009933
:100D3000411A1A48814201D90320F8BD206A800770
:100D4000F3D5206A6968B84308432062002E04D0B6
:100D5000E169012000078143E1612878C00705D0DF
:100D6000206BA968800880000843206328788006EB
:100D700005D5206B10218843E96808432063288843
:100D8000400505D5206B402188432969084320632D
:100D90000020F8BD001002400070004088130000E1
:100DA000F8B50F46060059D03A4D2868C007C00F65
:100DB000B84209D2286840084000384328602868B3
:100DC000C007C00FB84249D13068334C81070CD5F9
:100DD000400704D560680721090208436060606825
:100DE000F0218843B168084360603078C00726D09E
:100DF000706801280ED0216802280ED089070029CA
:100E00002CDA61688908890001436160FFF7E8FE18
:100E100000900DE021688903F1E78901EFE7FFF712
:100E2000DFFE0099411A1D48814201D90320F8BD17
:100E300060680C210840716889008842EFD12868F9
:100E4000C007C00FB8420BD928684008400038439B
:100E500028602868C007C00FB84201D00120F8BD43
:100E60003078400706D56068072109028843F16899
:100E70000843606000F028F86168094A0906090F14
:100E8000515CC840074908600020FFF7C7FE0020FA
:100E9000F8BD00000020024000100240881300004E
:100EA000A423000810000020044805490068496890
:100EB000044A4905490F515CC840704710000020A2
:100EC00000100240B423000810B514A30FCB88B063
:100ED0006C460FC415A30FCB0FC4184A51680C20E1
:100EE0000B4603401648042B16D0082B14D18B0256
:100EF0001B0F6C46E45CD26A04AB1207120F9A5CBB
:100F0000C90305D500231946FFF706F9214601E07C
:100F100020460C4901F080F808B010BD020304051A
:100F2000060708090A0B0C0D0E0F1010010203042E
:100F300005060708090A0B0C0D0E0F1000100240E1
:100F400000127A0000093D00FEB5040070D0207840
:100F5000DC4DC0074AD068680007800F012807D021
:100F600068680007800F022809D16868C00306D5A9
:100F7000286880033AD560680028E7D036E06168C9
:100F8000012914D001208004002901D0052914D0A2
:100F90002A68012109048A432A602968814329605B
:100FA0006068002816D0FFF71BFE06460EE0286892
:100FB0000121090408432860F2E7296801432960F8
:100FC000F5E7FFF70DFE801B64286ED828688003C4
:100FD000F7D50BE0FFF704FE064604E0FFF700FE3E
:100FE000801B6428F1D828688003F7D42078012674
:100FF000800700283CDA68680007800F07D068681F
:101000000007800F022809D16868C00306D4286849
:10101000800716D5E06801280AD112E0E0680028B0
:10102000286816D030432860FFF7DAFD074605E050
:1010300043E1FFF7D5FDC01B0228C6D8286880070A
:10104000F7D52868F82188432169C900084328603A
:101050000EE0400840002860FFF7C2FD074604E0AC
:10106000FFF7BEFDC01B0228AFD828688007F7D461
:101070002078000722D5E0690028686A0ED0304346
:101080006862FFF7ADFD074604E0FFF7A9FDC01B4E
:1010900002289AD8686A8007F7D50FE04008400018
:1010A0006862FFF79DFD074605E09DE0FFF798FDAC
:1010B000C01B022889D8686A8007F7D420780427E3
:1010C0004007002860DA00200190E869C00008D4D9
:1010D000E969B8060143E961E9690140012000912D
:1010E000019079480168C90511D40168821511433E
:1010F0000160FFF775FD009005E0FFF771FD0099B5
:10110000401A642870D870480068C005F5D5A068FA
:1011100001280AD0002801D0052810D0286A4008EC
:1011200040002862286AB84301E0286A30432862F8
:10113000A068002812D0FFF753FD00900AE0286A4B
:1011400038432862F1E7FFF74BFD0099411A5F48E9
:10115000814249D8286A8007F5D50DE0FFF740FDA8
:10116000009006E0FFF73CFD0099411A5748814284
:101170003AD8286A8007F5D40198002804D0E96994
:10118000012000078143E9612078C00635D56069F8
:1011900001280CD0401D686B23D038436863686B0E
:1011A000400840006863FFF71BFD064622E0686BBD
:1011B00038436863686B30436863FFF711FD064688
:1011C00004E0FFF70DFD801B02285BD8686B8007E9
:1011D000F7D5686BF8218843A169C90008436863A3
:1011E0000BE0B8436863F4E74CE0FFF7F9FC801BC1
:1011F000022847D8686B8007F7D4206A00285ED0A1
:1012000069680907890F022942D00126360602289B
:10121000286805D0B0432860FFF7E2FC044633E0BD
:10122000B0432860FFF7DCFC074604E0FFF7D8FC7A
:10123000C01B022826D828688001F7D4E86AE16A32
:10124000000900010843E862616AA06A084369680E
:101250003D221204914308436860286830432860A7
:10126000FFF7BEFC044604E0FFF7BAFC001B0228AF
:1012700008D828688001F7D521E0FFF7B1FC001BF2
:10128000022801D90320FEBD28688001F5D416E0AC
:101290000128F8D06868E96A01221204636A0240F2
:1012A0009A420AD10907E26A090F914205D10F213A
:1012B00089040840A16A884201D00120FEBD0020B7
:1012C000FEBD0000001002400070004088130000C6
:1012D000094910B5401E884201D9012010BD074CB4
:1012E00060610321081F00F0AFFE0020A06107200D
:1012F0002061002010BD0000FFFFFF0000E000E0C3
:10130000F0B502462032137F012B21D0012515773D
:101310000223537706687468B3687027BC430F686C
:101320002743776000680B4CA04208D0AC07A0426E
:1013300005D0094CA04202D0084CA04204D1802420
:101340004968A34319438160557700201077F0BDA9
:101350000220F0BD002C014000040040004001408C
:1013600070B5040005D025462035687F002802D0DE
:1013700006E0012070BD00202877204600F00AF822
:1013800002206877211D206800F01AFB0120687791
:10139000002070BD08B500680549884207D105489E
:1013A0008269C1140A43826180690840009008BDC7
:1013B000002C0140001002400222014620314A77F1
:1013C0000068826801235207520F062A02D0026881
:1013D0001A4302604B7700207047F8B50546044673
:1013E0002035287F012817D001262E770220687724
:1013F000226890687727FF23B8431B0298439060C8
:101400000A68502A31D00EDC202A4BD006DC002A94
:1014100048D0102A3AD145E00220F8BD302A41D008
:10142000402A33D136E0602A27D0702A12D001201A
:101430000003121A2AD0824228D1CB684A688968F0
:10144000206800F014FB2068816801229203114398
:1014500081601BE0CB684A688968206800F007FB60
:10146000216888683843886010E0CA684968206845
:1014700000F00CFC5021206806E0CA68496820682A
:1014800000F015FC6021206800F0FCFA6E77002067
:101490002877F8BDCA684968206800F0F7FB40214A
:1014A0002068F1E711462068EEE7000010B586B02D
:1014B000044614216846FEF777FE0121206889075B
:1014C000884214D10B48426949130A43426140697A
:1014D00008400590202000900020022102900390F7
:1014E0000191049109206946C006FFF7D5FA06B0BC
:1014F00010BD000000100240F8B506460446203634
:10150000307F0D4601280DD0012030770220707702
:101510000427002A08D0042A16D0082A2AD00C2A28
:101520004DD137E00220F8BD206800F0B3FA206802
:10153000816908221143816120688169B943816111
:10154000206881692A6912E0206800F0E7FA2068C3
:1015500082690121C9020A438261206881690122EE
:10156000920291438161206881692A6912021143C4
:10157000816124E0206800F011FB2068C269082125
:101580000A43C2612068C169B943C1612068C16969
:101590002A6912E0206800F043FB2068C16901223B
:1015A000D2021143C1612068C269012189028A43C4
:1015B000C2612068C1692A6912021143C161012018
:1015C000707700203077F8BD70B5040005D025464F
:1015D0002035687F002802D006E0012070BD002081
:1015E0002877204600F00AF802206877211D20683D
:1015F00000F0E6F901206877002070BD08B50068AA
:1016000001218907884207D10448C1690122114399
:10161000C161C0691040009008BD00000010024088
:1016200010B504460068012200F014FA0E48216843
:10163000814208D00D48814205D00D48814202D038
:101640000C48814204D1486C0122D2031043486403
:10165000206881684907490F062903D001680122E3
:1016600011430160002010BD002C014000400140EA
:10167000004401400048014010B5040003D0606FF1
:10168000002802D007E0012010BD00217020015584
:10169000204600F027F82420606720680168490888
:1016A00049000160204600F0ABFB0128ECD0606AE5
:1016B000002802D0204600F00DFB20684168092276
:1016C000D20291434160206881682A22914381605F
:1016D00020680168012211430160204600F060FB90
:1016E00010BD000010B586B0044614216846FEF710
:1016F0005BFD1349206888421FD11248826901218D
:1017000089030A43826182690A4005924269C900DD
:101710000A4342614069084005900320400200905E
:1017200002200190002002900320039001200490E9
:1017300009206946C006FFF7AFF906B010BD0000EA
:101740000038014000100240FFB50446406F83B0EE
:1017500017460D4620285CD1002D0AD0002F08D056
:10176000A168C001814207D12069002804D1E8079F
:1017700002D0012007B0F0BD204660300290007C0E
:10178000012846D00298012101740020E067212041
:101790006067FFF725FA2646403601903782778248
:1017A0000120A1680003814202D12069002802D0F3
:1017B0002F46002511E000270FE00022802120465F
:1017C00000F0C2FB002815D1002F15D02168387811
:1017D00008857F1C708A401E7082708A019B0028D9
:1017E00006980090E9D100224021204600F0ACFB91
:1017F000002808D00320BDE728882168C005C00D57
:101800000885AD1CE6E72020606702990020087477
:10181000B0E70220AEE7FEE73EB5002412491348C8
:1018200000940194029412C00460042244600121D7
:10183000C2608160047444748474C4748A02446114
:10184000826102461832117101620838FEF796FE75
:1018500001200003019000040290009469460348AF
:10186000FEF7E8FD3EBD000000240140140000200A
:1018700010B586B0002400941049114801940294D8
:1018800003940494059412C004608460C4600D49FC
:10189000046141600838FFF763FD012000030090F8
:1018A00069460748FFF799FD202004A911C10448A3
:1018B0000839FFF725FD06B010BD0000002C0140DF
:1018C000680000201F03000010B58AB000240794B0
:1018D0001C2168460894FEF767FC0121104889071F
:1018E00012C0046084600F49046141600838FFF74A
:1018F0006BFE202007A911C109480839FFF700FD38
:1019000060200090019402940022694604940448E7
:10191000FFF7F2FD0248FFF7C9FD0AB010BD000055
:10192000A80000207F38010010B50A48084901606E
:10193000E1214902416000218160C1600161816152
:10194000C1610822016242614162FFF795FE10BD4C
:1019500000380140E800002070477047704710B51C
:10196000FFF744F910BD30B595B030216846FEF759
:101970001BFC00240C940D940E94142110A80F94B9
:10198000FEF712FC0125122005950090102003950A
:101990000490069008946846FFF7D6FA07200C904A
:1019A0000D940E9400210F940CA8FFF7F9F910A8DC
:1019B00010951294FFF778F915B030BD704700000C
:1019C000F0B502681D4B0124A4071D4D984203D0B9
:1019D000A04201D0A84203D17026B2434E683243E0
:1019E000184E194F98420DD0A0420BD0A84209D0F2
:1019F000164CA04206D0B04204D0B84202D0144CDB
:101A0000A04204D103242402A243CC6822438024B0
:101A1000A2434C69224302608A68C2620A688262F9
:101A2000984206D0B04204D0B84202D0084A904250
:101A300001D10969016301214161F0BD002C014020
:101A400000040040004001400044014000200040EC
:101A50000048014010B5CB06DB0E0121046A994015
:101A60008C430462016A9A401143016210BD30B593
:101A70008468FF252D021B021343AC430B43234311
:101A8000836030BD826870239A430A4307210A436A
:101A900082607047F0B5026A520852000262056A1D
:101AA000436882697024A24392080C689200144330
:101AB000022295438A68164E2A43144DA84207D045
:101AC000B04205D0134FB84202D0134FB84206D1EE
:101AD0000827BA43CF681743042297433A46A842DF
:101AE00007D0B04205D00B4DA84202D00A4DA84203
:101AF00006D103252D02AB434D691D438B692B4352
:101B000043608461496841630262F0BD002C01407A
:101B100000400140004401400048014070B5026AA5
:101B200010239A430262056A42688369732424027F
:101B3000A3430C6824021C4320239D438B681B0194
:101B40002B43124DA84208D11D46CB688026B543D1
:101B50001B012B434025AB4308E00D4DA84205D0A7
:101B60000C4DA84202D00C4DA84208D10325AD026D
:101B7000AA434D69AD0015438A6992002A43426029
:101B8000846149688163036270BD0000002C0140DC
:101B900000400140004401400048014070B5026A25
:101BA000FF2301339A430262056A4368C2697024C5
:101BB000A24392080C6892001443012252029543FA
:101BC0008A6812022A43124DA84208D11546CA68F3
:101BD000C614B54312022A430515AA4308E00D4D69
:101BE000A84205D00C4DA84202D00C4DA84208D105
:101BF00003252D03AB434D692D011D438B691B014B
:101C00002B434360C4614968C163026270BD000038
:101C1000002C0140004001400044014000480140C8
:101C200030B5026A01231B039A430262046A4268C8
:101C3000C36973252D02AB430D682D021D4301239B
:101C40005B039C438B681B0323430C4CA04208D0CE
:101C50000B4CA04205D00B4CA04202D00A4CA04233
:101C600005D10124A403A2434C69A401224342608C
:101C7000C56149680164036230BD0000002C014069
:101C800000400140004401400048014030B5036A73
:101C9000046A6408640004628469F025AC4312019C
:101CA00022430A24A3430B438261036230BD30B553
:101CB000036A1024A34303628469036A0F252D037A
:101CC0001203AC432243A024A343090119438261B8
:101CD000016230BD10B5818CC90707D001684A6820
:101CE00001235B049A43836A1A434A60818C890703
:101CF00007D501684A6801231B049A43C36A1A4343
:101D00004A60818C490707D501684A6801239B0412
:101D10009A43036B1A434A60818C090707D501680F
:101D20004A680123DB039A43436B1A434A60818C60
:101D3000C90607D50268916801231B039943836B89
:101D400019439160818C890607D501688A6801234F
:101D50005B039A43C36B1A438A60818C490612D590
:101D600003685A6801210905046C8A4322435A60BA
:101D7000026C8A4207D10268516803235B059943CC
:101D8000436C19435160818C090607D501684A6884
:101D90000123DB04806C9A4302434A6010BD0000BB
:101DA000F8B500260446C667FEF71AFF0546206808
:101DB0000068124F000709D501212B460022490572
:101DC0002046009700F0C0F800280DD12068006878
:101DD00040070BD501212B4600228905204600979C
:101DE00000F0B2F8002801D00320F8BD2020606781
:101DF000A067603426740020F8BD0000FFFFFF01DB
:101E000070B5044680682169E2690843616900256C
:101E10001143226808431168444B19400143116083
:101E200021684868032212039043E2681043486027
:101E3000A169206A2268084391680B231B02994319
:101E4000014391603A492068884210D13948006BBB
:101E50008007800F11D0012805D0022805D0032863
:101E60000AD1022009E0042007E0082005E03249F9
:101E7000884201D1002000E010200122E169D20354
:101E80002E4E914228D1002806D0022807D00428DF
:101E900017D0082844D11AE0FFF706F813E061686C
:101EA000274A48088018FEF721F980B20146103908
:101EB000B14235D82149491C01400007400F084371
:101EC00021E0FFF701F8616840004A08EAE761682D
:101ED000012248081204E5E7002806D0022807D0AE
:101EE000042813D008281BD116E0FEF7DDFF0FE011
:101EF0006168144A480811E0FEF7F8F880B201461C
:101F00001039B1420CD82168C8600AE0FEF7DCFF46
:101F100061684A081018EFE7616848088018EBE725
:101F20000125002020666066284670BDF369FFFF2A
:101F3000003801400010024000440040EFFF000064
:101F40000024F40000127A00FFB581B005460F4668
:101F5000044660350A9E38E0701C36D0FEF740FE1D
:101F60000499401AB04221D8002E1FD02068016881
:101F700049072AD5C069C043000526D4012021683D
:101F8000C002086220680168FF22A132914301600B
:101F90002068816849084900816020206067A06747
:101FA000E06700202874032005B0F0BD20680168B8
:101FB000FF22A132914301602068816849084900ED
:101FC000816020206067A067EBE72068C169384620
:101FD000884305D0002103988142BDD00020E3E76B
:101FE0000121F8E70FB41CB50246002007AC002918
:101FF0000BD0491E01910092064B6A462146069875
:1020000000F054F8009A002111701CBC08BC04B008
:1020100018470000FD210008F8B5040C8BB22646D5
:1020200082B25E430D0C1046370C584336048019BB
:102030000021794116466E43370C360480197941E8
:1020400026466E438919F8BD8307FF22DB0E9A40AE
:102050008907090E9940002808DB830809489B007E
:102060001B18186890430843186070470007000F5A
:102070000838830804489B001B18D869904308431C
:10208000D861704700E400E000ED00E002E008C81D
:10209000121F08C1002AFAD170477047002001E0E2
:1020A00001C1121F002AFBD170470000FFB58DB09F
:1020B0000446002506E025280AD0109A0F9990477B
:1020C000641C6D1C20780028F5D1284611B0F0BDA5
:1020D00000270121484A009700E00743641C237849
:1020E0000846203B98401042F7D120782E2817D17F
:1020F000042007436078641C2A280CD10E98641CC5
:1021000002C800910E900BE000990A225143303929
:102110004018641C00902078014630390929F3D911
:1021200020780028D1D0642808D0692806D07528E6
:102130001ED0109A0F9990476D1C5BE00A200E99F3
:10214000019001C90E91002802DA40422D2102E0DF
:10215000390504D52B216A461172012103E0F907E4
:1021600004D02021F7E70BAE0B910DE00021FAE738
:102170000A200E99019001C90E91F7E70199FDF728
:10218000B5FF3031761E31700028F7D103A8801BCF
:1021900020300190780701D5009801E001200090DF
:1021A0000199884201DD401A00E0002000270090DC
:1021B00006E002A8109AC05D0F9990476D1C7F1C25
:1021C0000B988742F5DB04E0109A30200F99904776
:1021D0006D1C0099481E00900029F5DC05E0307860
:1021E000109A761C0F9990476D1C0199481E01901A
:1021F0000029F4DC641C65E7092801004A68002A0C
:1022000006D00A68531C0B6010704868401E486076
:1022100070470000E6B0FF21913102A8FDF7C4FF2E
:10222000002426462546FEF7E9FCFFF79CFB5448B0
:102230004269012149040A43426142690A4000920D
:102240004169012211434161406910400022009020
:1022500011460920FEF724FD0920FEF715FDFFF7C2
:10226000DBFAFFF761FBFFF703FB00274649009706
:102270004448019708600846FEF7EEFA24200090D3
:102280000022694601974048FEF7CCFAFFF71CFB95
:102290003D484038FEF775F83B48C8223B49403876
:1022A000FEF770FA38481430FFF786F83648543095
:1022B000FFF782F8344800215430FFF7B1F90021CC
:1022C0003148FEF719FB324908780028FBD0012875
:1022D00002D0022809D010E02C4A00204300D35A33
:1022E000401C1C196428F9DB07E0284A64204300DD
:1022F000D35A401C1C19C828F9DB0F7064212046F2
:10230000FDF7F4FE0446A80002A90C50632D26D167
:10231000002082008A58401C96196428F9DB642149
:102320003046FDF7E3FEB721890048437D21C9000F
:10233000FDF7DCFE0346154816A23F214038FFF7A3
:1023400051FE12484038FDF73AFF104982B2403939
:10235000084664238038FFF7F7F900252E4600224F
:102360002346114608486D1CFEF7B8FA0B480C4985
:102370006043FDF7BBFE0121890748630024A2E703
:10238000001002400074004054000020A80100200A
:10239000000000202564206D560D0A0080380100E1
:1023A000FF0F000000000000000000000102030415
:1023B000060708090000000001020304DC230008EE
:1023C00000000020140000008C200008F02300080A
:1023D000140000206C0700009C2000080000000092
:1023E00001000000040000000000000000127A005C
:04000005080000BD32
:00000001FF
